{
  "contractName": "All_In_One",
  "abi": [
    {
      "constant": false,
      "inputs": [
        {
          "internalType": "uint256",
          "name": "_adharCardNumber",
          "type": "uint256"
        },
        {
          "internalType": "string",
          "name": "_name",
          "type": "string"
        },
        {
          "internalType": "string",
          "name": "_addres",
          "type": "string"
        },
        {
          "internalType": "uint256",
          "name": "_phoneNo",
          "type": "uint256"
        },
        {
          "internalType": "string",
          "name": "_bloodGroup",
          "type": "string"
        },
        {
          "internalType": "uint256",
          "name": "_insuranceCompany",
          "type": "uint256"
        },
        {
          "internalType": "uint256",
          "name": "_emergencyContact",
          "type": "uint256"
        }
      ],
      "name": "addPatientInfo",
      "outputs": [],
      "payable": false,
      "stateMutability": "nonpayable",
      "type": "function"
    },
    {
      "constant": false,
      "inputs": [
        {
          "internalType": "uint256",
          "name": "insu_id",
          "type": "uint256"
        }
      ],
      "name": "updateInsuComp",
      "outputs": [],
      "payable": false,
      "stateMutability": "nonpayable",
      "type": "function"
    },
    {
      "constant": true,
      "inputs": [],
      "name": "getTreatmentIds",
      "outputs": [
        {
          "internalType": "uint256[]",
          "name": "treatmentId",
          "type": "uint256[]"
        },
        {
          "internalType": "string[]",
          "name": "treatmentDate",
          "type": "string[]"
        }
      ],
      "payable": false,
      "stateMutability": "view",
      "type": "function"
    },
    {
      "constant": true,
      "inputs": [
        {
          "internalType": "uint256",
          "name": "pid",
          "type": "uint256"
        }
      ],
      "name": "getTreatmentIdsforDr",
      "outputs": [
        {
          "internalType": "uint256[]",
          "name": "treatmentId",
          "type": "uint256[]"
        },
        {
          "internalType": "string",
          "name": "precaution",
          "type": "string"
        }
      ],
      "payable": false,
      "stateMutability": "view",
      "type": "function"
    },
    {
      "constant": false,
      "inputs": [
        {
          "internalType": "uint256",
          "name": "pid",
          "type": "uint256"
        },
        {
          "internalType": "string",
          "name": "date",
          "type": "string"
        },
        {
          "internalType": "string",
          "name": "reason",
          "type": "string"
        }
      ],
      "name": "raiseEmergency",
      "outputs": [],
      "payable": false,
      "stateMutability": "nonpayable",
      "type": "function"
    },
    {
      "constant": true,
      "inputs": [],
      "name": "raisedEmergencyDetails",
      "outputs": [
        {
          "internalType": "uint256[]",
          "name": "emergencyLogID",
          "type": "uint256[]"
        },
        {
          "internalType": "string[]",
          "name": "emergencyDate",
          "type": "string[]"
        },
        {
          "internalType": "string[]",
          "name": "emergencyReason",
          "type": "string[]"
        }
      ],
      "payable": false,
      "stateMutability": "view",
      "type": "function"
    },
    {
      "constant": true,
      "inputs": [
        {
          "internalType": "uint256",
          "name": "_adharCardNumber",
          "type": "uint256"
        }
      ],
      "name": "getPatientInfo",
      "outputs": [
        {
          "internalType": "string",
          "name": "name",
          "type": "string"
        },
        {
          "internalType": "string",
          "name": "addres",
          "type": "string"
        },
        {
          "internalType": "uint256",
          "name": "phoneNo",
          "type": "uint256"
        },
        {
          "internalType": "string",
          "name": "bloodGroup",
          "type": "string"
        },
        {
          "internalType": "uint256",
          "name": "insuranceCompany",
          "type": "uint256"
        },
        {
          "internalType": "uint256",
          "name": "emergencyContacts",
          "type": "uint256"
        },
        {
          "internalType": "string",
          "name": "Precautions",
          "type": "string"
        }
      ],
      "payable": false,
      "stateMutability": "view",
      "type": "function"
    },
    {
      "constant": false,
      "inputs": [
        {
          "internalType": "uint256",
          "name": "_adharCardNumber",
          "type": "uint256"
        },
        {
          "internalType": "string",
          "name": "_Precautions",
          "type": "string"
        }
      ],
      "name": "UpdatePrecautions",
      "outputs": [],
      "payable": false,
      "stateMutability": "nonpayable",
      "type": "function"
    },
    {
      "constant": false,
      "inputs": [
        {
          "internalType": "uint256",
          "name": "d_id",
          "type": "uint256"
        },
        {
          "internalType": "address",
          "name": "ms",
          "type": "address"
        }
      ],
      "name": "myfunc",
      "outputs": [],
      "payable": false,
      "stateMutability": "nonpayable",
      "type": "function"
    },
    {
      "constant": false,
      "inputs": [
        {
          "internalType": "uint256",
          "name": "d_id",
          "type": "uint256"
        }
      ],
      "name": "giveAccessToDoctor",
      "outputs": [
        {
          "internalType": "uint256",
          "name": "id",
          "type": "uint256"
        }
      ],
      "payable": false,
      "stateMutability": "nonpayable",
      "type": "function"
    },
    {
      "constant": false,
      "inputs": [
        {
          "internalType": "uint256",
          "name": "p_id",
          "type": "uint256"
        }
      ],
      "name": "addToinsurance",
      "outputs": [],
      "payable": false,
      "stateMutability": "nonpayable",
      "type": "function"
    },
    {
      "constant": false,
      "inputs": [
        {
          "internalType": "uint256",
          "name": "_companyId",
          "type": "uint256"
        },
        {
          "internalType": "string",
          "name": "_name",
          "type": "string"
        },
        {
          "internalType": "uint256",
          "name": "phone_no",
          "type": "uint256"
        }
      ],
      "name": "addInsurancecompany",
      "outputs": [],
      "payable": false,
      "stateMutability": "nonpayable",
      "type": "function"
    },
    {
      "constant": true,
      "inputs": [
        {
          "internalType": "uint256",
          "name": "Insu_id",
          "type": "uint256"
        }
      ],
      "name": "getInsuranceCompany",
      "outputs": [
        {
          "internalType": "string",
          "name": "name",
          "type": "string"
        },
        {
          "internalType": "uint256",
          "name": "phoneNo",
          "type": "uint256"
        }
      ],
      "payable": false,
      "stateMutability": "view",
      "type": "function"
    },
    {
      "constant": false,
      "inputs": [
        {
          "internalType": "string",
          "name": "_Medication",
          "type": "string"
        }
      ],
      "name": "addNotCoverdMedicationInInsurance",
      "outputs": [],
      "payable": false,
      "stateMutability": "nonpayable",
      "type": "function"
    },
    {
      "constant": true,
      "inputs": [
        {
          "internalType": "uint64",
          "name": "_adharCardNumber",
          "type": "uint64"
        }
      ],
      "name": "applyForInsurance",
      "outputs": [
        {
          "internalType": "string",
          "name": "InsuranceStatus",
          "type": "string"
        }
      ],
      "payable": false,
      "stateMutability": "view",
      "type": "function"
    },
    {
      "constant": true,
      "inputs": [
        {
          "internalType": "uint256",
          "name": "p_id",
          "type": "uint256"
        }
      ],
      "name": "recApp",
      "outputs": [
        {
          "internalType": "uint256[]",
          "name": "appInsurance",
          "type": "uint256[]"
        },
        {
          "internalType": "string[]",
          "name": "iStatus",
          "type": "string[]"
        }
      ],
      "payable": false,
      "stateMutability": "view",
      "type": "function"
    },
    {
      "constant": false,
      "inputs": [
        {
          "internalType": "uint256",
          "name": "p_id",
          "type": "uint256"
        },
        {
          "internalType": "uint256",
          "name": "t_id",
          "type": "uint256"
        },
        {
          "internalType": "string",
          "name": "approve",
          "type": "string"
        }
      ],
      "name": "coverInsurance",
      "outputs": [],
      "payable": false,
      "stateMutability": "nonpayable",
      "type": "function"
    },
    {
      "constant": false,
      "inputs": [
        {
          "internalType": "uint256",
          "name": "patient_id",
          "type": "uint256"
        },
        {
          "internalType": "uint256",
          "name": "doctor_id",
          "type": "uint256"
        },
        {
          "internalType": "string",
          "name": "diagnosis",
          "type": "string"
        },
        {
          "internalType": "string",
          "name": "test_conducted",
          "type": "string"
        },
        {
          "internalType": "uint256",
          "name": "bill",
          "type": "uint256"
        },
        {
          "internalType": "string",
          "name": "date",
          "type": "string"
        },
        {
          "internalType": "string",
          "name": "medicine",
          "type": "string"
        }
      ],
      "name": "TreatPatient",
      "outputs": [
        {
          "internalType": "uint256",
          "name": "_tiid",
          "type": "uint256"
        }
      ],
      "payable": false,
      "stateMutability": "nonpayable",
      "type": "function"
    },
    {
      "constant": true,
      "inputs": [
        {
          "internalType": "uint256",
          "name": "pid",
          "type": "uint256"
        },
        {
          "internalType": "uint256",
          "name": "_tid",
          "type": "uint256"
        }
      ],
      "name": "getMbill",
      "outputs": [
        {
          "internalType": "uint256",
          "name": "mbill",
          "type": "uint256"
        },
        {
          "internalType": "string",
          "name": "insu_status",
          "type": "string"
        }
      ],
      "payable": false,
      "stateMutability": "view",
      "type": "function"
    },
    {
      "constant": true,
      "inputs": [
        {
          "internalType": "uint256",
          "name": "pid",
          "type": "uint256"
        },
        {
          "internalType": "uint256",
          "name": "_tid",
          "type": "uint256"
        }
      ],
      "name": "getTreatmentDetails",
      "outputs": [
        {
          "internalType": "uint256",
          "name": "p_id",
          "type": "uint256"
        },
        {
          "internalType": "uint256",
          "name": "d_id",
          "type": "uint256"
        },
        {
          "internalType": "string",
          "name": "diagnosis",
          "type": "string"
        },
        {
          "internalType": "string",
          "name": "test_conducted",
          "type": "string"
        },
        {
          "internalType": "uint256",
          "name": "bill",
          "type": "uint256"
        },
        {
          "internalType": "string",
          "name": "date",
          "type": "string"
        },
        {
          "internalType": "string",
          "name": "medicine",
          "type": "string"
        }
      ],
      "payable": false,
      "stateMutability": "view",
      "type": "function"
    },
    {
      "constant": false,
      "inputs": [
        {
          "internalType": "uint256",
          "name": "p_id",
          "type": "uint256"
        },
        {
          "internalType": "string",
          "name": "_medication",
          "type": "string"
        }
      ],
      "name": "addInsuranceKeep",
      "outputs": [],
      "payable": false,
      "stateMutability": "nonpayable",
      "type": "function"
    },
    {
      "constant": false,
      "inputs": [
        {
          "internalType": "uint256",
          "name": "doc_id",
          "type": "uint256"
        },
        {
          "internalType": "string",
          "name": "name",
          "type": "string"
        },
        {
          "internalType": "string",
          "name": "practice_type",
          "type": "string"
        },
        {
          "internalType": "string",
          "name": "area_of_expertize",
          "type": "string"
        },
        {
          "internalType": "uint256",
          "name": "phone_no",
          "type": "uint256"
        },
        {
          "internalType": "string",
          "name": "Address",
          "type": "string"
        }
      ],
      "name": "addDoctor",
      "outputs": [],
      "payable": false,
      "stateMutability": "nonpayable",
      "type": "function"
    },
    {
      "constant": true,
      "inputs": [
        {
          "internalType": "uint256",
          "name": "_d_id",
          "type": "uint256"
        }
      ],
      "name": "getDoctorDetails",
      "outputs": [
        {
          "internalType": "uint256",
          "name": "doc_id",
          "type": "uint256"
        },
        {
          "internalType": "string",
          "name": "name",
          "type": "string"
        },
        {
          "internalType": "string",
          "name": "practice_type",
          "type": "string"
        },
        {
          "internalType": "string",
          "name": "area_of_expertize",
          "type": "string"
        },
        {
          "internalType": "uint256",
          "name": "phone_no",
          "type": "uint256"
        },
        {
          "internalType": "string",
          "name": "Address",
          "type": "string"
        }
      ],
      "payable": false,
      "stateMutability": "view",
      "type": "function"
    },
    {
      "constant": false,
      "inputs": [
        {
          "internalType": "uint256",
          "name": "_adharCardNumber",
          "type": "uint256"
        }
      ],
      "name": "requestAccessToPatient",
      "outputs": [
        {
          "internalType": "uint256",
          "name": "",
          "type": "uint256"
        }
      ],
      "payable": false,
      "stateMutability": "nonpayable",
      "type": "function"
    },
    {
      "constant": false,
      "inputs": [
        {
          "internalType": "uint256",
          "name": "_adharCardNumber",
          "type": "uint256"
        },
        {
          "internalType": "uint256",
          "name": "OTP",
          "type": "uint256"
        }
      ],
      "name": "getDetailsOfAllTID",
      "outputs": [
        {
          "internalType": "uint256[]",
          "name": "",
          "type": "uint256[]"
        }
      ],
      "payable": false,
      "stateMutability": "nonpayable",
      "type": "function"
    },
    {
      "constant": false,
      "inputs": [
        {
          "internalType": "uint256",
          "name": "chem_id",
          "type": "uint256"
        },
        {
          "internalType": "string",
          "name": "Address",
          "type": "string"
        },
        {
          "internalType": "string",
          "name": "name",
          "type": "string"
        },
        {
          "internalType": "uint256",
          "name": "phone_no",
          "type": "uint256"
        }
      ],
      "name": "addChemist",
      "outputs": [],
      "payable": false,
      "stateMutability": "nonpayable",
      "type": "function"
    },
    {
      "constant": false,
      "inputs": [
        {
          "internalType": "uint256",
          "name": "chem_id",
          "type": "uint256"
        }
      ],
      "name": "getchemistinfo",
      "outputs": [
        {
          "internalType": "string",
          "name": "Address",
          "type": "string"
        },
        {
          "internalType": "string",
          "name": "name",
          "type": "string"
        },
        {
          "internalType": "uint256",
          "name": "phone_no",
          "type": "uint256"
        }
      ],
      "payable": false,
      "stateMutability": "nonpayable",
      "type": "function"
    },
    {
      "constant": true,
      "inputs": [
        {
          "internalType": "uint256",
          "name": "p_id",
          "type": "uint256"
        }
      ],
      "name": "giveMedicines",
      "outputs": [
        {
          "internalType": "string",
          "name": "",
          "type": "string"
        }
      ],
      "payable": false,
      "stateMutability": "view",
      "type": "function"
    },
    {
      "constant": true,
      "inputs": [
        {
          "internalType": "uint256",
          "name": "pid",
          "type": "uint256"
        },
        {
          "internalType": "uint256",
          "name": "_tid",
          "type": "uint256"
        }
      ],
      "name": "getPTDetails",
      "outputs": [
        {
          "internalType": "uint256",
          "name": "p_id",
          "type": "uint256"
        },
        {
          "internalType": "uint256",
          "name": "d_id",
          "type": "uint256"
        },
        {
          "internalType": "string",
          "name": "date",
          "type": "string"
        },
        {
          "internalType": "string",
          "name": "medicine",
          "type": "string"
        }
      ],
      "payable": false,
      "stateMutability": "view",
      "type": "function"
    },
    {
      "constant": false,
      "inputs": [
        {
          "internalType": "uint256",
          "name": "pid",
          "type": "uint256"
        },
        {
          "internalType": "uint256",
          "name": "_tid",
          "type": "uint256"
        },
        {
          "internalType": "uint256",
          "name": "amt",
          "type": "uint256"
        }
      ],
      "name": "uploadBill",
      "outputs": [],
      "payable": false,
      "stateMutability": "nonpayable",
      "type": "function"
    },
    {
      "constant": false,
      "inputs": [],
      "name": "Identify",
      "outputs": [
        {
          "internalType": "uint256",
          "name": "val",
          "type": "uint256"
        }
      ],
      "payable": false,
      "stateMutability": "nonpayable",
      "type": "function"
    }
  ],
  "bytecode": "0x6080604052600160005534801561001557600080fd5b50614989806100256000396000f3fe608060405234801561001057600080fd5b50600436106101e55760003560e01c8063a22dbdf11161010f578063d63bb6e4116100a2578063eb7d01c211610071578063eb7d01c2146105d4578063f67fac4314610604578063fd22936d14610637578063ff4e08771461066d576101e5565b8063d63bb6e414610525578063db132d6e14610541578063e22900ff14610571578063e4837d61146105a2576101e5565b8063bf7d2c9f116100de578063bf7d2c9f1461049f578063cb96b1aa146104bb578063d0b89101146104d7578063d48b2e9214610507576101e5565b8063a22dbdf1146103f1578063a6f27faf14610422578063b47b82e114610452578063b483cefe14610483576101e5565b806353a58880116101875780637c759e91116101565780637c759e911461036757806381e86d4814610383578063828927c41461039f5780639ecb17a7146103d5576101e5565b806353a58880146102e05780635b8126df146103105780636c0559001461032c5780637699ad221461034b576101e5565b80633c8a8f29116101c35780633c8a8f29146102575780633cfc5ff914610273578063422a4363146102935780634f922abf146102af576101e5565b80632536ae31146101ea5780632a239456146102065780633b6d5b8c14610222575b600080fd5b61020460048036036101ff9190810190613ee2565b61069d565b005b610220600480360361021b9190810190613c80565b610846565b005b61023c60048036036102379190810190613b48565b610a32565b60405161024e969594939291906145eb565b60405180910390f35b610271600480360361026c9190810190613b71565b610dca565b005b61027b610e28565b60405161028a939291906143d9565b60405180910390f35b6102ad60048036036102a89190810190613c01565b6110f6565b005b6102c960048036036102c49190810190613b48565b61127f565b6040516102d7929190614425565b60405180910390f35b6102fa60048036036102f59190810190613fec565b61140a565b60405161030791906145a0565b60405180910390f35b61032a60048036036103259190810190613bad565b6116db565b005b610334611729565b6040516103429291906143a2565b60405180910390f35b61036560048036036103609190810190613f85565b6118f9565b005b610381600480360361037c9190810190613b48565b6119dc565b005b61039d600480360361039891908101906140ea565b611b50565b005b6103b960048036036103b49190810190613b48565b611bd1565b6040516103cc97969594939291906144c3565b60405180910390f35b6103ef60048036036103ea9190810190613d69565b611f6c565b005b61040b60048036036104069190810190613b48565b612117565b6040516104199291906143a2565b60405180910390f35b61043c60048036036104379190810190613b48565b6122e9565b604051610449919061445c565b60405180910390f35b61046c60048036036104679190810190613f49565b612433565b60405161047a9291906145bb565b60405180910390f35b61049d60048036036104989190810190613bad565b6125b5565b005b6104b960048036036104b49190810190613b48565b6126be565b005b6104d560048036036104d09190810190613b07565b612740565b005b6104f160048036036104ec9190810190614139565b6127fb565b6040516104fe919061445c565b60405180910390f35b61050f612b07565b60405161051c91906145a0565b60405180910390f35b61053f600480360361053a9190810190613dfc565b612b8d565b005b61055b60048036036105569190810190613b48565b612d9d565b60405161056891906145a0565b60405180910390f35b61058b60048036036105869190810190613b48565b612e06565b60405161059992919061454e565b60405180910390f35b6105bc60048036036105b79190810190613b48565b612f7c565b6040516105cb9392919061447e565b60405180910390f35b6105ee60048036036105e99190810190613b48565b613146565b6040516105fb91906145a0565b60405180910390f35b61061e60048036036106199190810190613f49565b6131fa565b60405161062e9493929190614668565b60405180910390f35b610651600480360361064c9190810190613f49565b613460565b60405161066497969594939291906146bb565b60405180910390f35b61068760048036036106829190810190613f49565b61385d565b6040516106949190614380565b60405180910390f35b600060016000858152602001908152602001600020541480156106ff57506000600360003373ffffffffffffffffffffffffffffffffffffffff1673ffffffffffffffffffffffffffffffffffffffff16815260200190815260200160002054145b61070857600080fd5b8160066000858152602001908152602001600020600001908051906020019061073292919061394f565b5080600660008581526020019081526020016000206001018190555082600360003373ffffffffffffffffffffffffffffffffffffffff1673ffffffffffffffffffffffffffffffffffffffff168152602001908152602001600020819055506003600160008581526020019081526020016000208190555082600360003373ffffffffffffffffffffffffffffffffffffffff1673ffffffffffffffffffffffffffffffffffffffff16815260200190815260200160002081905550336004600085815260200190815260200160002060006101000a81548173ffffffffffffffffffffffffffffffffffffffff021916908373ffffffffffffffffffffffffffffffffffffffff160217905550505050565b6000600160008881526020019081526020016000205414806108a757506000600360003373ffffffffffffffffffffffffffffffffffffffff1673ffffffffffffffffffffffffffffffffffffffff16815260200190815260200160002054145b6108b057600080fd5b6040518060c0016040528087815260200186815260200185815260200184815260200183815260200182815250600860008881526020019081526020016000206000820151816000015560208201518160010190805190602001906109169291906139cf565b5060408201518160020190805190602001906109339291906139cf565b5060608201518160030190805190602001906109509291906139cf565b506080820151816004015560a08201518160050190805190602001906109779291906139cf565b509050506002600160008881526020019081526020016000208190555085600360003373ffffffffffffffffffffffffffffffffffffffff1673ffffffffffffffffffffffffffffffffffffffff16815260200190815260200160002081905550336004600088815260200190815260200160002060006101000a81548173ffffffffffffffffffffffffffffffffffffffff021916908373ffffffffffffffffffffffffffffffffffffffff160217905550505050505050565b60006060806060600060606000600360003373ffffffffffffffffffffffffffffffffffffffff1673ffffffffffffffffffffffffffffffffffffffff168152602001908152602001600020549050600260016000838152602001908152602001600020541480610ab55750600180600083815260200190815260200160002054145b610abe57600080fd5b6008600089815260200190815260200160002060000154600860008a8152602001908152602001600020600101600860008b8152602001908152602001600020600201600860008c8152602001908152602001600020600301600860008d815260200190815260200160002060040154600860008e8152602001908152602001600020600501848054600181600116156101000203166002900480601f016020809104026020016040519081016040528092919081815260200182805460018160011615610100020316600290048015610bd95780601f10610bae57610100808354040283529160200191610bd9565b820191906000526020600020905b815481529060010190602001808311610bbc57829003601f168201915b50505050509450838054600181600116156101000203166002900480601f016020809104026020016040519081016040528092919081815260200182805460018160011615610100020316600290048015610c755780601f10610c4a57610100808354040283529160200191610c75565b820191906000526020600020905b815481529060010190602001808311610c5857829003601f168201915b50505050509350828054600181600116156101000203166002900480601f016020809104026020016040519081016040528092919081815260200182805460018160011615610100020316600290048015610d115780601f10610ce657610100808354040283529160200191610d11565b820191906000526020600020905b815481529060010190602001808311610cf457829003601f168201915b50505050509250808054600181600116156101000203166002900480601f016020809104026020016040519081016040528092919081815260200182805460018160011615610100020316600290048015610dad5780601f10610d8257610100808354040283529160200191610dad565b820191906000526020600020905b815481529060010190602001808311610d9057829003601f168201915b505050505090509650965096509650965096505091939550919395565b8160026000600360008573ffffffffffffffffffffffffffffffffffffffff1673ffffffffffffffffffffffffffffffffffffffff168152602001908152602001600020548152602001908152602001600020600b01819055505050565b60608060606000600360003373ffffffffffffffffffffffffffffffffffffffff1673ffffffffffffffffffffffffffffffffffffffff16815260200190815260200160002054905060018060008381526020019081526020016000205414610e9057600080fd5b60026000828152602001908152602001600020600c0160026000838152602001908152602001600020600d0160026000848152602001908152602001600020600e0182805480602002602001604051908101604052809291908181526020018280548015610f1d57602002820191906000526020600020905b815481526020019060010190808311610f09575b5050505050925081805480602002602001604051908101604052809291908181526020016000905b82821015611001578382906000526020600020018054600181600116156101000203166002900480601f016020809104026020016040519081016040528092919081815260200182805460018160011615610100020316600290048015610fed5780601f10610fc257610100808354040283529160200191610fed565b820191906000526020600020905b815481529060010190602001808311610fd057829003601f168201915b505050505081526020019060010190610f45565b50505050915080805480602002602001604051908101604052809291908181526020016000905b828210156110e4578382906000526020600020018054600181600116156101000203166002900480601f0160208091040260200160405190810160405280929190818152602001828054600181600116156101000203166002900480156110d05780601f106110a5576101008083540402835291602001916110d0565b820191906000526020600020905b8154815290600101906020018083116110b357829003601f168201915b505050505081526020019060010190611028565b50505050905093509350935050909192565b6000600360003373ffffffffffffffffffffffffffffffffffffffff1673ffffffffffffffffffffffffffffffffffffffff16815260200190815260200160002054905060018060008681526020019081526020016000205414801561116f575060026001600083815260200190815260200160002054145b61117857600080fd5b8060026000868152602001908152602001600020600b018190555060026000858152602001908152602001600020600c0181908060018154018082558091505090600182039060005260206000200160009091929091909150555060026000858152602001908152602001600020600d0183908060018154018082558091505090600182039060005260206000200160009091929091909150908051906020019061122492919061394f565b505060026000858152602001908152602001600020600e0182908060018154018082558091505090600182039060005260206000200160009091929091909150908051906020019061127792919061394f565b505050505050565b6060806000600360003373ffffffffffffffffffffffffffffffffffffffff1673ffffffffffffffffffffffffffffffffffffffff16815260200190815260200160002054905060026001600083815260200190815260200160002054146112e657600080fd5b60026000858152602001908152602001600020600701600260008681526020019081526020016000206006018180548060200260200160405190810160405280929190818152602001828054801561135d57602002820191906000526020600020905b815481526020019060010190808311611349575b50505050509150808054600181600116156101000203166002900480601f0160208091040260200160405190810160405280929190818152602001828054600181600116156101000203166002900480156113f95780601f106113ce576101008083540402835291602001916113f9565b820191906000526020600020905b8154815290600101906020018083116113dc57829003601f168201915b505050505090509250925050915091565b600080600360003373ffffffffffffffffffffffffffffffffffffffff1673ffffffffffffffffffffffffffffffffffffffff16815260200190815260200160002054905060018060008b81526020019081526020016000205414806114a45750600260016000838152602001908152602001600020541480156114a3575080600260008b8152602001908152602001600020600b0154145b5b6114ad57600080fd5b6000805490506001600054016000819055508960076000838152602001908152602001600020600001819055508860076000838152602001908152602001600020600101819055508760076000838152602001908152602001600020600201908051906020019061151f92919061394f565b508660076000838152602001908152602001600020600301908051906020019061154a92919061394f565b508560076000838152602001908152602001600020600401819055508460076000838152602001908152602001600020600601908051906020019061159092919061394f565b50836007600083815260200190815260200160002060070190805190602001906115bb92919061394f565b50600060076000838152602001908152602001600020600501819055506040518060400160405280600b81526020017f4e6f74206170706c69656400000000000000000000000000000000000000000081525060076000838152602001908152602001600020600901908051906020019061163792919061394f565b50600260008b8152602001908152602001600020600701819080600181540180825580915050906001820390600052602060002001600090919290919091505550600260008b8152602001908152602001600020600a018590806001815401808255809150509060018203906000526020600020016000909192909190915090805190602001906116c992919061394f565b50508092505050979650505050505050565b600180600084815260200190815260200160002054146116fa57600080fd5b8060026000848152602001908152602001600020600601908051906020019061172492919061394f565b505050565b6060806000600360003373ffffffffffffffffffffffffffffffffffffffff1673ffffffffffffffffffffffffffffffffffffffff1681526020019081526020016000205490506001806000838152602001908152602001600020541461178f57600080fd5b6002600082815260200190815260200160002060070160026000838152602001908152602001600020600a018180548060200260200160405190810160405280929190818152602001828054801561180657602002820191906000526020600020905b8154815260200190600101908083116117f2575b5050505050915080805480602002602001604051908101604052809291908181526020016000905b828210156118ea578382906000526020600020018054600181600116156101000203166002900480601f0160208091040260200160405190810160405280929190818152602001828054600181600116156101000203166002900480156118d65780601f106118ab576101008083540402835291602001916118d6565b820191906000526020600020905b8154815290600101906020018083116118b957829003601f168201915b50505050508152602001906001019061182e565b50505050905092509250509091565b8060076000848152602001908152602001600020600901908051906020019061192392919061394f565b5060006002600085815260200190815260200160002060090180549050905060008090505b818110156119d5578360026000878152602001908152602001600020600801828154811061197257fe5b906000526020600020015414156119c857826002600087815260200190815260200160002060090182815481106119a557fe5b9060005260206000200190805190602001906119c292919061394f565b506119d5565b8080600101915050611948565b5050505050565b600060026000838152602001908152602001600020600701600160026000858152602001908152602001600020600701805490500381548110611a1b57fe5b9060005260206000200154905060026000838152602001908152602001600020600801819080600181540180825580915050906001820390600052602060002001600090919290919091505550600260008381526020019081526020016000206009018060018154018082558091505090600182039060005260206000200160006040518060400160405280600781526020017f4170706c6965640000000000000000000000000000000000000000000000000081525090919091509080519060200190611aea92919061394f565b50506040518060400160405280600781526020017f4170706c69656400000000000000000000000000000000000000000000000000815250600760008381526020019081526020016000206009019080519060200190611b4b92919061394f565b505050565b600360003373ffffffffffffffffffffffffffffffffffffffff1673ffffffffffffffffffffffffffffffffffffffff1681526020019081526020016000205460026000858152602001908152602001600020600b015414611bb157600080fd5b806007600084815260200190815260200160002060050181905550505050565b60608060006060600080606087600360003373ffffffffffffffffffffffffffffffffffffffff1673ffffffffffffffffffffffffffffffffffffffff168152602001908152602001600020541480611c3d57506002600160008a815260200190815260200160002054145b611c4657600080fd5b60026000898152602001908152602001600020600001600260008a8152602001908152602001600020600101600260008b815260200190815260200160002060020154600260008c8152602001908152602001600020600301600260008d815260200190815260200160002060040154600260008e815260200190815260200160002060050154600260008f8152602001908152602001600020600601868054600181600116156101000203166002900480601f016020809104026020016040519081016040528092919081815260200182805460018160011615610100020316600290048015611d785780601f10611d4d57610100808354040283529160200191611d78565b820191906000526020600020905b815481529060010190602001808311611d5b57829003601f168201915b50505050509650858054600181600116156101000203166002900480601f016020809104026020016040519081016040528092919081815260200182805460018160011615610100020316600290048015611e145780601f10611de957610100808354040283529160200191611e14565b820191906000526020600020905b815481529060010190602001808311611df757829003601f168201915b50505050509550838054600181600116156101000203166002900480601f016020809104026020016040519081016040528092919081815260200182805460018160011615610100020316600290048015611eb05780601f10611e8557610100808354040283529160200191611eb0565b820191906000526020600020905b815481529060010190602001808311611e9357829003601f168201915b50505050509350808054600181600116156101000203166002900480601f016020809104026020016040519081016040528092919081815260200182805460018160011615610100020316600290048015611f4c5780601f10611f2157610100808354040283529160200191611f4c565b820191906000526020600020905b815481529060010190602001808311611f2f57829003601f168201915b505050505090509650965096509650965096509650919395979092949650565b600060016000868152602001908152602001600020541480611fcd57506000600360003373ffffffffffffffffffffffffffffffffffffffff1673ffffffffffffffffffffffffffffffffffffffff16815260200190815260200160002054145b611fd657600080fd5b83600a60008681526020019081526020016000206000018190555082600a6000868152602001908152602001600020600101908051906020019061201b92919061394f565b5081600a6000868152602001908152602001600020600201908051906020019061204692919061394f565b5080600a6000868152602001908152602001600020600301819055506004600160008681526020019081526020016000208190555083600360003373ffffffffffffffffffffffffffffffffffffffff1673ffffffffffffffffffffffffffffffffffffffff16815260200190815260200160002081905550336004600086815260200190815260200160002060006101000a81548173ffffffffffffffffffffffffffffffffffffffff021916908373ffffffffffffffffffffffffffffffffffffffff16021790555050505050565b6060806000600360003373ffffffffffffffffffffffffffffffffffffffff1673ffffffffffffffffffffffffffffffffffffffff168152602001908152602001600020549050600360016000838152602001908152602001600020541461217e57600080fd5b6002600085815260200190815260200160002060080160026000868152602001908152602001600020600901818054806020026020016040519081016040528092919081815260200182805480156121f557602002820191906000526020600020905b8154815260200190600101908083116121e1575b5050505050915080805480602002602001604051908101604052809291908181526020016000905b828210156122d9578382906000526020600020018054600181600116156101000203166002900480601f0160208091040260200160405190810160405280929190818152602001828054600181600116156101000203166002900480156122c55780601f1061229a576101008083540402835291602001916122c5565b820191906000526020600020905b8154815290600101906020018083116122a857829003601f168201915b50505050508152602001906001019061221d565b5050505090509250925050915091565b60606000600360003373ffffffffffffffffffffffffffffffffffffffff1673ffffffffffffffffffffffffffffffffffffffff1681526020019081526020016000205490506060600760006002600087815260200190815260200160002060070160016002600089815260200190815260200160002060070180549050038154811061237257fe5b906000526020600020015481526020019081526020016000206007018054600181600116156101000203166002900480601f0160208091040260200160405190810160405280929190818152602001828054600181600116156101000203166002900480156124225780601f106123f757610100808354040283529160200191612422565b820191906000526020600020905b81548152906001019060200180831161240557829003601f168201915b505050505090508092505050919050565b60006060600360003373ffffffffffffffffffffffffffffffffffffffff1673ffffffffffffffffffffffffffffffffffffffff1681526020019081526020016000205460026000868152602001908152602001600020600b015414806124d8575083600360003373ffffffffffffffffffffffffffffffffffffffff1673ffffffffffffffffffffffffffffffffffffffff16815260200190815260200160002054145b6124e157600080fd5b600760008481526020019081526020016000206005015460076000858152602001908152602001600020600901808054600181600116156101000203166002900480601f0160208091040260200160405190810160405280929190818152602001828054600181600116156101000203166002900480156125a35780601f10612578576101008083540402835291602001916125a3565b820191906000526020600020905b81548152906001019060200180831161258657829003601f168201915b50505050509050915091509250929050565b6000600360003373ffffffffffffffffffffffffffffffffffffffff1673ffffffffffffffffffffffffffffffffffffffff168152602001908152602001600020549050600260016000838152602001908152602001600020541461261957600080fd5b60006002600085815260200190815260200160002060070160016002600087815260200190815260200160002060070180549050038154811061265857fe5b90600052602060002001549050600760008281526020019081526020016000206008018390806001815401808255809150509060018203906000526020600020016000909192909190915090805190602001906126b692919061394f565b505050505050565b6000600360003373ffffffffffffffffffffffffffffffffffffffff1673ffffffffffffffffffffffffffffffffffffffff1681526020019081526020016000205490506001806000838152602001908152602001600020541461272157600080fd5b8160026000838152602001908152602001600020600401819055505050565b6000600360003373ffffffffffffffffffffffffffffffffffffffff1673ffffffffffffffffffffffffffffffffffffffff16815260200190815260200160002054905060036001600083815260200190815260200160002054146127a457600080fd5b600660008281526020019081526020016000206002018290806001815401808255809150509060018203906000526020600020016000909192909190915090805190602001906127f592919061394f565b50505050565b60606000600360003373ffffffffffffffffffffffffffffffffffffffff1673ffffffffffffffffffffffffffffffffffffffff16815260200190815260200160002054905060018060008567ffffffffffffffff16815260200190815260200160002054148061288957506002600160008567ffffffffffffffff16815260200190815260200160002054145b80156128c6575060018060008381526020019081526020016000205414806128c557506002600160006002815260200190815260200160002054145b5b6128cf57600080fd5b6000600260008567ffffffffffffffff1681526020019081526020016000206004015490506000600260008667ffffffffffffffff1681526020019081526020016000206007016001600260008867ffffffffffffffff16815260200190815260200160002060070180549050038154811061294757fe5b9060005260206000200154905060006001905060008090505b6006600085815260200190815260200160002060020180549050811015612a7d57600115158215151461299257612a7d565b60008090505b6007600085815260200190815260200160002060080180549050811015612a6f576007600085815260200190815260200160002060080181815481106129da57fe5b906000526020600020016040516020016129f4919061457e565b60405160208183030381529060405280519060200120600660008781526020019081526020016000206002018381548110612a2b57fe5b90600052602060002001604051602001612a45919061457e565b604051602081830303815290604052805190602001201415612a6a5760009250612a6f565b612998565b508080600101915050612960565b508015612ac5576040518060400160405280600781526020017f7375636365737300000000000000000000000000000000000000000000000000815250945050505050612b02565b6040518060400160405280600481526020017f6661696c000000000000000000000000000000000000000000000000000000008152509450505050505b919050565b600080600360003373ffffffffffffffffffffffffffffffffffffffff1673ffffffffffffffffffffffffffffffffffffffff168152602001908152602001600020549050600060016000838152602001908152602001600020541415612b72576000915050612b8a565b60016000828152602001908152602001600020549150505b90565b60006001600089815260200190815260200160002054148015612bef57506000600360003373ffffffffffffffffffffffffffffffffffffffff1673ffffffffffffffffffffffffffffffffffffffff16815260200190815260200160002054145b612bf857600080fd5b85600260008981526020019081526020016000206000019080519060200190612c2292919061394f565b5084600260008981526020019081526020016000206001019080519060200190612c4d92919061394f565b5083600260008981526020019081526020016000206002018190555082600260008981526020019081526020016000206003019080519060200190612c9392919061394f565b50816002600089815260200190815260200160002060040181905550806002600089815260200190815260200160002060050181905550600060026000898152602001908152602001600020600b018190555060018060008981526020019081526020016000208190555086600360003373ffffffffffffffffffffffffffffffffffffffff1673ffffffffffffffffffffffffffffffffffffffff16815260200190815260200160002081905550336004600089815260200190815260200160002060006101000a81548173ffffffffffffffffffffffffffffffffffffffff021916908373ffffffffffffffffffffffffffffffffffffffff16021790555050505050505050565b6000612da98233610dca565b60026000600360003373ffffffffffffffffffffffffffffffffffffffff1673ffffffffffffffffffffffffffffffffffffffff168152602001908152602001600020548152602001908152602001600020600b01549050919050565b6060600080600360003373ffffffffffffffffffffffffffffffffffffffff1673ffffffffffffffffffffffffffffffffffffffff1681526020019081526020016000205490506001806000838152602001908152602001600020541480612e81575060036001600086815260200190815260200160002054145b612e8a57600080fd5b600060066000868152602001908152602001600020600201805490509050600660008681526020019081526020016000206000016006600087815260200190815260200160002060010154818054600181600116156101000203166002900480601f016020809104026020016040519081016040528092919081815260200182805460018160011615610100020316600290048015612f6a5780601f10612f3f57610100808354040283529160200191612f6a565b820191906000526020600020905b815481529060010190602001808311612f4d57829003601f168201915b50505050509150935093505050915091565b6060806000600460016000868152602001908152602001600020541480612fb55750600180600086815260200190815260200160002054145b612fbe57600080fd5b600a6000858152602001908152602001600020600101600a6000868152602001908152602001600020600201600a600087815260200190815260200160002060030154828054600181600116156101000203166002900480601f0160208091040260200160405190810160405280929190818152602001828054600181600116156101000203166002900480156130965780601f1061306b57610100808354040283529160200191613096565b820191906000526020600020905b81548152906001019060200180831161307957829003601f168201915b50505050509250818054600181600116156101000203166002900480601f0160208091040260200160405190810160405280929190818152602001828054600181600116156101000203166002900480156131325780601f1061310757610100808354040283529160200191613132565b820191906000526020600020905b81548152906001019060200180831161311557829003601f168201915b505050505091509250925092509193909250565b600080600360003373ffffffffffffffffffffffffffffffffffffffff1673ffffffffffffffffffffffffffffffffffffffff16815260200190815260200160002054905060026001600083815260200190815260200160002054146131ab57600080fd5b60008342026040516020016131c091906145a0565b6040516020818303038152906040528051906020012060001c90508060096000868152602001908152602001600020819055505050919050565b600080606080600360003373ffffffffffffffffffffffffffffffffffffffff1673ffffffffffffffffffffffffffffffffffffffff1681526020019081526020016000205460026000888152602001908152602001600020600b015414806132b457506001806000600360003373ffffffffffffffffffffffffffffffffffffffff1673ffffffffffffffffffffffffffffffffffffffff16815260200190815260200160002054815260200190815260200160002054145b6132bd57600080fd5b600760008681526020019081526020016000206000015460076000878152602001908152602001600020600101546007600088815260200190815260200160002060060160076000898152602001908152602001600020600701818054600181600116156101000203166002900480601f0160208091040260200160405190810160405280929190818152602001828054600181600116156101000203166002900480156133ac5780601f10613381576101008083540402835291602001916133ac565b820191906000526020600020905b81548152906001019060200180831161338f57829003601f168201915b50505050509150808054600181600116156101000203166002900480601f0160208091040260200160405190810160405280929190818152602001828054600181600116156101000203166002900480156134485780601f1061341d57610100808354040283529160200191613448565b820191906000526020600020905b81548152906001019060200180831161342b57829003601f168201915b50505050509050935093509350935092959194509250565b6000806060806000606080600360003373ffffffffffffffffffffffffffffffffffffffff1673ffffffffffffffffffffffffffffffffffffffff16815260200190815260200160002054600260008b8152602001908152602001600020600b01541480156134e4575088600760008a815260200190815260200160002060000154145b8061352d575088600360003373ffffffffffffffffffffffffffffffffffffffff1673ffffffffffffffffffffffffffffffffffffffff16815260200190815260200160002054145b61353657600080fd5b6007600089815260200190815260200160002060000154600760008a815260200190815260200160002060010154600760008b8152602001908152602001600020600201600760008c8152602001908152602001600020600301600760008d815260200190815260200160002060040154600760008e8152602001908152602001600020600601600760008f8152602001908152602001600020600701848054600181600116156101000203166002900480601f0160208091040260200160405190810160405280929190818152602001828054600181600116156101000203166002900480156136685780601f1061363d57610100808354040283529160200191613668565b820191906000526020600020905b81548152906001019060200180831161364b57829003601f168201915b50505050509450838054600181600116156101000203166002900480601f0160208091040260200160405190810160405280929190818152602001828054600181600116156101000203166002900480156137045780601f106136d957610100808354040283529160200191613704565b820191906000526020600020905b8154815290600101906020018083116136e757829003601f168201915b50505050509350818054600181600116156101000203166002900480601f0160208091040260200160405190810160405280929190818152602001828054600181600116156101000203166002900480156137a05780601f10613775576101008083540402835291602001916137a0565b820191906000526020600020905b81548152906001019060200180831161378357829003601f168201915b50505050509150808054600181600116156101000203166002900480601f01602080910402602001604051908101604052809291908181526020018280546001816001161561010002031660029004801561383c5780601f106138115761010080835404028352916020019161383c565b820191906000526020600020905b81548152906001019060200180831161381f57829003601f168201915b50505050509050965096509650965096509650965092959891949750929550565b60606000600360003373ffffffffffffffffffffffffffffffffffffffff1673ffffffffffffffffffffffffffffffffffffffff168152602001908152602001600020549050600260016000838152602001908152602001600020541480156138d85750826009600086815260200190815260200160002054145b6138e157600080fd5b6002600085815260200190815260200160002060070180548060200260200160405190810160405280929190818152602001828054801561394157602002820191906000526020600020905b81548152602001906001019080831161392d575b505050505091505092915050565b828054600181600116156101000203166002900490600052602060002090601f016020900481019282601f1061399057805160ff19168380011785556139be565b828001600101855582156139be579182015b828111156139bd5782518255916020019190600101906139a2565b5b5090506139cb9190613a4f565b5090565b828054600181600116156101000203166002900490600052602060002090601f016020900481019282601f10613a1057805160ff1916838001178555613a3e565b82800160010185558215613a3e579182015b82811115613a3d578251825591602001919060010190613a22565b5b509050613a4b9190613a4f565b5090565b613a7191905b80821115613a6d576000816000905550600101613a55565b5090565b90565b600081359050613a8381614901565b92915050565b600082601f830112613a9a57600080fd5b8135613aad613aa882614773565b614746565b91508082526020830160208301858383011115613ac957600080fd5b613ad48382846148ae565b50505092915050565b600081359050613aec81614918565b92915050565b600081359050613b018161492f565b92915050565b600060208284031215613b1957600080fd5b600082013567ffffffffffffffff811115613b3357600080fd5b613b3f84828501613a89565b91505092915050565b600060208284031215613b5a57600080fd5b6000613b6884828501613add565b91505092915050565b60008060408385031215613b8457600080fd5b6000613b9285828601613add565b9250506020613ba385828601613a74565b9150509250929050565b60008060408385031215613bc057600080fd5b6000613bce85828601613add565b925050602083013567ffffffffffffffff811115613beb57600080fd5b613bf785828601613a89565b9150509250929050565b600080600060608486031215613c1657600080fd5b6000613c2486828701613add565b935050602084013567ffffffffffffffff811115613c4157600080fd5b613c4d86828701613a89565b925050604084013567ffffffffffffffff811115613c6a57600080fd5b613c7686828701613a89565b9150509250925092565b60008060008060008060c08789031215613c9957600080fd5b6000613ca789828a01613add565b965050602087013567ffffffffffffffff811115613cc457600080fd5b613cd089828a01613a89565b955050604087013567ffffffffffffffff811115613ced57600080fd5b613cf989828a01613a89565b945050606087013567ffffffffffffffff811115613d1657600080fd5b613d2289828a01613a89565b9350506080613d3389828a01613add565b92505060a087013567ffffffffffffffff811115613d5057600080fd5b613d5c89828a01613a89565b9150509295509295509295565b60008060008060808587031215613d7f57600080fd5b6000613d8d87828801613add565b945050602085013567ffffffffffffffff811115613daa57600080fd5b613db687828801613a89565b935050604085013567ffffffffffffffff811115613dd357600080fd5b613ddf87828801613a89565b9250506060613df087828801613add565b91505092959194509250565b600080600080600080600060e0888a031215613e1757600080fd5b6000613e258a828b01613add565b975050602088013567ffffffffffffffff811115613e4257600080fd5b613e4e8a828b01613a89565b965050604088013567ffffffffffffffff811115613e6b57600080fd5b613e778a828b01613a89565b9550506060613e888a828b01613add565b945050608088013567ffffffffffffffff811115613ea557600080fd5b613eb18a828b01613a89565b93505060a0613ec28a828b01613add565b92505060c0613ed38a828b01613add565b91505092959891949750929550565b600080600060608486031215613ef757600080fd5b6000613f0586828701613add565b935050602084013567ffffffffffffffff811115613f2257600080fd5b613f2e86828701613a89565b9250506040613f3f86828701613add565b9150509250925092565b60008060408385031215613f5c57600080fd5b6000613f6a85828601613add565b9250506020613f7b85828601613add565b9150509250929050565b600080600060608486031215613f9a57600080fd5b6000613fa886828701613add565b9350506020613fb986828701613add565b925050604084013567ffffffffffffffff811115613fd657600080fd5b613fe286828701613a89565b9150509250925092565b600080600080600080600060e0888a03121561400757600080fd5b60006140158a828b01613add565b97505060206140268a828b01613add565b965050604088013567ffffffffffffffff81111561404357600080fd5b61404f8a828b01613a89565b955050606088013567ffffffffffffffff81111561406c57600080fd5b6140788a828b01613a89565b94505060806140898a828b01613add565b93505060a088013567ffffffffffffffff8111156140a657600080fd5b6140b28a828b01613a89565b92505060c088013567ffffffffffffffff8111156140cf57600080fd5b6140db8a828b01613a89565b91505092959891949750929550565b6000806000606084860312156140ff57600080fd5b600061410d86828701613add565b935050602061411e86828701613add565b925050604061412f86828701613add565b9150509250925092565b60006020828403121561414b57600080fd5b600061415984828501613af2565b91505092915050565b600061416e838361429a565b905092915050565b60006141828383614362565b60208301905092915050565b6000614199826147d4565b6141a3818561481a565b9350836020820285016141b58561479f565b8060005b858110156141f157848403895281516141d28582614162565b94506141dd83614800565b925060208a019950506001810190506141b9565b50829750879550505050505092915050565b600061420e826147df565b614218818561482b565b9350614223836147af565b8060005b8381101561425457815161423b8882614176565b97506142468361480d565b925050600181019050614227565b5085935050505092915050565b600061426c826147f5565b614276818561484d565b93506142868185602086016148bd565b61428f816148f0565b840191505092915050565b60006142a5826147ea565b6142af818561483c565b93506142bf8185602086016148bd565b6142c8816148f0565b840191505092915050565b6000815460018116600081146142f057600181146143165761435a565b607f6002830416614301818761484d565b955060ff19831686526020860193505061435a565b60028204614324818761484d565b955061432f856147bf565b60005b8281101561435157815481890152600182019150602081019050614332565b80880195505050505b505092915050565b61436b81614890565b82525050565b61437a81614890565b82525050565b6000602082019050818103600083015261439a8184614203565b905092915050565b600060408201905081810360008301526143bc8185614203565b905081810360208301526143d0818461418e565b90509392505050565b600060608201905081810360008301526143f38186614203565b90508181036020830152614407818561418e565b9050818103604083015261441b818461418e565b9050949350505050565b6000604082019050818103600083015261443f8185614203565b905081810360208301526144538184614261565b90509392505050565b600060208201905081810360008301526144768184614261565b905092915050565b600060608201905081810360008301526144988186614261565b905081810360208301526144ac8185614261565b90506144bb6040830184614371565b949350505050565b600060e08201905081810360008301526144dd818a614261565b905081810360208301526144f18189614261565b90506145006040830188614371565b81810360608301526145128187614261565b90506145216080830186614371565b61452e60a0830185614371565b81810360c08301526145408184614261565b905098975050505050505050565b600060408201905081810360008301526145688185614261565b90506145776020830184614371565b9392505050565b6000602082019050818103600083015261459881846142d3565b905092915050565b60006020820190506145b56000830184614371565b92915050565b60006040820190506145d06000830185614371565b81810360208301526145e28184614261565b90509392505050565b600060c0820190506146006000830189614371565b81810360208301526146128188614261565b905081810360408301526146268187614261565b9050818103606083015261463a8186614261565b90506146496080830185614371565b81810360a083015261465b8184614261565b9050979650505050505050565b600060808201905061467d6000830187614371565b61468a6020830186614371565b818103604083015261469c8185614261565b905081810360608301526146b08184614261565b905095945050505050565b600060e0820190506146d0600083018a614371565b6146dd6020830189614371565b81810360408301526146ef8188614261565b905081810360608301526147038187614261565b90506147126080830186614371565b81810360a08301526147248185614261565b905081810360c08301526147388184614261565b905098975050505050505050565b6000604051905081810181811067ffffffffffffffff8211171561476957600080fd5b8060405250919050565b600067ffffffffffffffff82111561478a57600080fd5b601f19601f8301169050602081019050919050565b6000819050602082019050919050565b6000819050602082019050919050565b60008190508160005260206000209050919050565b600081519050919050565b600081519050919050565b600081519050919050565b600081519050919050565b6000602082019050919050565b6000602082019050919050565b600082825260208201905092915050565b600082825260208201905092915050565b600082825260208201905092915050565b600082825260208201905092915050565b600061486982614870565b9050919050565b600073ffffffffffffffffffffffffffffffffffffffff82169050919050565b6000819050919050565b600067ffffffffffffffff82169050919050565b82818337600083830152505050565b60005b838110156148db5780820151818401526020810190506148c0565b838111156148ea576000848401525b50505050565b6000601f19601f8301169050919050565b61490a8161485e565b811461491557600080fd5b50565b61492181614890565b811461492c57600080fd5b50565b6149388161489a565b811461494357600080fd5b5056fea365627a7a7231582025d7c4ca9cebd0824ab81af59f802cc989d31f53318381d56bbeb634b04d9d306c6578706572696d656e74616cf564736f6c63430005100040",
  "source": "pragma solidity ^0.5.16;\npragma experimental ABIEncoderV2;\n \n \ncontract All_In_One {\n    \n    // Paitent Structure here \n    \n    struct paitent {           \n        string name;\n        string addres;\n        uint phoneNo;\n        string bloodGroup;\n        uint insuranceCompanyId;\n        uint emergencyContact;\n        string Precautions;\n        uint [] treatmentId;\n        uint [] forInsurance;\n        string [] status;\n        string [] treatmentDate;\n        uint permission;\n        uint [] emergencyLogID;\n        string [] emergencyLogDate;\n        string [] emergencyReason;\n    }\n\n    uint temp=1;\n    \n    mapping (uint => uint ) entitie;\n    mapping (uint => paitent ) p_info;\n    mapping (address => uint) addresstoId;\n    mapping (uint => address) IdtoAdress;\n    mapping(address => uint)balancesOfMoney;\n \n    \n    function addPatientInfo (uint _adharCardNumber, string memory _name, string memory _addres,uint _phoneNo ,string memory _bloodGroup , uint _insuranceCompany, uint _emergencyContact) public  {\n        require(entitie[_adharCardNumber]==0 && addresstoId[msg.sender]==0); \n        p_info[_adharCardNumber].name = _name;\n        p_info[_adharCardNumber].addres = _addres;\n        p_info[_adharCardNumber].phoneNo = _phoneNo;\n        p_info[_adharCardNumber].bloodGroup = _bloodGroup;\n        p_info[_adharCardNumber].insuranceCompanyId = _insuranceCompany;\n        p_info[_adharCardNumber].emergencyContact = _emergencyContact;\n        p_info[_adharCardNumber].permission = 0;\n        entitie[_adharCardNumber] = 1; \n        addresstoId[msg.sender] = _adharCardNumber;\n        IdtoAdress[_adharCardNumber] = msg.sender;\n    }\n\n    function updateInsuComp(uint insu_id) public {\n        uint val = addresstoId[msg.sender];\n        require(entitie[val]==1 );\n        p_info[val].insuranceCompanyId=insu_id;\n    }\n\n    function getTreatmentIds() public view returns (uint [] memory treatmentId,string [] memory treatmentDate){\n        uint val = addresstoId[msg.sender];\n        require(entitie[val]==1 );\n        return (p_info[val].treatmentId, p_info[val].treatmentDate);\n    }\n\n    function getTreatmentIdsforDr(uint pid) public view returns (uint [] memory treatmentId,string memory precaution){\n        uint val = addresstoId[msg.sender];\n        require(entitie[val]==2 );\n        return (p_info[pid].treatmentId, p_info[pid].Precautions);\n    }\n\n    function raiseEmergency(uint pid,string memory date,string memory reason) public {\n        uint val=addresstoId[msg.sender];\n        require(entitie[pid]==1 && entitie[val]==2);\n        p_info[pid].permission=val; \n        p_info[pid].emergencyLogID.push(val);\n        p_info[pid].emergencyLogDate.push(date);\n        p_info[pid].emergencyReason.push(reason);\n    }\n\n    function raisedEmergencyDetails() public view returns (uint [] memory emergencyLogID,string [] memory emergencyDate,string [] memory emergencyReason){\n        uint val = addresstoId[msg.sender];\n        require(entitie[val]==1 );\n        return (p_info[val].emergencyLogID, p_info[val].emergencyLogDate,p_info[val].emergencyReason);\n    }\n    \n    function getPatientInfo(uint  _adharCardNumber) public view returns(string memory name , string memory addres,uint phoneNo ,string memory bloodGroup , uint insuranceCompany, uint emergencyContacts, string memory Precautions){\n        require(addresstoId[msg.sender]== _adharCardNumber || entitie[_adharCardNumber]==2   );\n        return(p_info[_adharCardNumber].name, p_info[_adharCardNumber].addres, p_info[_adharCardNumber].phoneNo, p_info[_adharCardNumber].bloodGroup, p_info[_adharCardNumber].insuranceCompanyId, p_info[_adharCardNumber].emergencyContact,p_info[_adharCardNumber].Precautions);\n    }\n    \n    \n    function UpdatePrecautions( uint _adharCardNumber,string memory _Precautions ) public {\n        require(entitie[_adharCardNumber]==1);\n        p_info[_adharCardNumber].Precautions = _Precautions;\n    }\n\n    function myfunc(uint d_id,address ms) public{\n        p_info[addresstoId[ms]].permission = d_id;\n    }\n\n\n    function giveAccessToDoctor(uint d_id) public returns(uint id){\n        myfunc(d_id,msg.sender);\n        return p_info[addresstoId[msg.sender]].permission;\n    }\n\n    function addToinsurance(uint p_id) public{\n        uint tttid=p_info[p_id].treatmentId[p_info[p_id].treatmentId.length-1];\n        p_info[p_id].forInsurance.push(tttid);\n        p_info[p_id].status.push(\"Applied\");\n        tid[tttid].insu_status=\"Applied\";\n\n    }\n\n    \n    //---------------------------------------------------------------------------------------------------------------------------------\n    // Insurance is here \n    struct insuranceCompany {\n        string name ;\n        uint phoneNo;\n        string[] notCovered;\n    }\n    \n    mapping (uint => insuranceCompany)insu_info;\n \n    function addInsurancecompany (uint _companyId, string memory _name, uint phone_no) public{\n        require(entitie[_companyId]==0 && addresstoId[msg.sender]==0); \n        insu_info[_companyId].name = _name;\n        insu_info[_companyId].phoneNo = phone_no;\n        addresstoId[msg.sender] = _companyId;\n        entitie[_companyId]=3;\n        addresstoId[msg.sender] = _companyId;\n        IdtoAdress[_companyId] = msg.sender;\n    }\n    \n    function getInsuranceCompany (uint Insu_id) public view returns (string memory name, uint phoneNo){\n        uint val = addresstoId[msg.sender];\n        require(entitie[val]==1 || entitie[Insu_id]==3); \n        uint length = insu_info[Insu_id].notCovered.length;\n        return(insu_info[Insu_id].name, insu_info[Insu_id].phoneNo);\n    }\n    \n    function addNotCoverdMedicationInInsurance(string memory _Medication) public{\n        uint val = addresstoId[msg.sender];\n        require(entitie[val]==3); \n        insu_info[val].notCovered.push(_Medication);  \n    }\n    \n    function applyForInsurance(uint64 _adharCardNumber) public view returns(string memory InsuranceStatus){\n        uint val = addresstoId[msg.sender];\n        require((entitie[_adharCardNumber]==1 || entitie[_adharCardNumber]==2) && (entitie[val]==1 || entitie[2]==2));\n        uint insu_id = p_info[_adharCardNumber].insuranceCompanyId;\n        uint latestTreatmentid = p_info[_adharCardNumber].treatmentId[p_info[_adharCardNumber].treatmentId.length-1];\n        bool flag = true;\n        for(uint j=0;j<insu_info[insu_id].notCovered.length;j++){\n\n            if(flag!=true)\n                break;\n            else{\n                for(uint i=0;i<tid[latestTreatmentid].InsuranceKeep.length;){\n                    if(keccak256(abi.encode(insu_info[insu_id].notCovered[j]))==keccak256(abi.encode(tid[latestTreatmentid].InsuranceKeep[i])))\n                    {\n                        flag = false;\n                        break;\n                    }\n                }    \n            }\n        }\n        if(flag)\n        return(\"success\");\n        //return (0x496e737572616e6365205375636365737366756c6c7920436c61696d6564);\n        else\n        return(\"fail\");\n        //return (0x496e737572616e636520436c61696d696e67204661696c6564);\n    }\n    \n\n    function recApp(uint p_id) public view returns (uint [] memory appInsurance,string [] memory iStatus){\n        uint val = addresstoId[msg.sender];\n        require(entitie[val]==3 );\n        return (p_info[p_id].forInsurance, p_info[p_id].status);\n    }\n\n\n\n    function coverInsurance(uint p_id,uint t_id,string memory approve) public {\n        tid[t_id].insu_status=approve;\n        uint len=p_info[p_id].status.length;\n        for(uint i=0;i< len;i++){\n            if(p_info[p_id].forInsurance[i]==t_id){\n                p_info[p_id].status[i]=approve;\n                break;\n            }\n        }\n\n    }\n    \n\n\n    //---------------------------------------------------------------------------------------------------------------------------------\n    // Treatment Structure here \n    struct treatment {\n        uint patient_id;\n        uint doctor_id;\n        string diagnosis;\n        string test_conducted;\n        uint bill;\n        uint mbill;\n        string date;\n        string medicine;\n        string[] InsuranceKeep;\n        string insu_status; \n    }\n    \n    mapping(uint=>treatment) tid;\n    \n            \n    \n    function TreatPatient(uint patient_id,uint doctor_id,string memory diagnosis,string memory test_conducted,uint bill,string memory date,string memory medicine) public  returns (uint _tiid){\n        uint val = addresstoId[msg.sender];\n        require(entitie[patient_id]==1 || (entitie[val]==2 && p_info[patient_id].permission==val) );\n        uint _tid = temp;\n        temp=temp+1;\n        tid[_tid].patient_id = patient_id;\n        tid[_tid].doctor_id = doctor_id;\n        tid[_tid].diagnosis = diagnosis;\n        tid[_tid].test_conducted = test_conducted;\n        tid[_tid].bill = bill;\n        tid[_tid].date = date;\n        tid[_tid].medicine = medicine;\n        tid[_tid].mbill = 0;\n        tid[_tid].insu_status=\"Not applied\";\n        p_info[patient_id].treatmentId.push(_tid);\n        p_info[patient_id].treatmentDate.push(date); // pushing treatmentId to array in treatmentId.\n        return _tid;\n    }\n\n    function getMbill(uint pid,uint _tid) public view returns (uint mbill,string memory insu_status){\n        require( p_info[pid].permission==addresstoId[msg.sender] || addresstoId[msg.sender]==pid);\n        return (tid[_tid].mbill,tid[_tid].insu_status);\n    }\n    \n    function getTreatmentDetails(uint pid,uint _tid) public view returns (uint p_id,uint d_id,string memory diagnosis,string memory test_conducted,uint bill,string memory date,string memory medicine) {\n        //uint val = addresstoId[msg.sender];\n        require( (p_info[pid].permission==addresstoId[msg.sender] && tid[_tid].patient_id == pid) || addresstoId[msg.sender]==pid);\n        //(entitie[addresstoId[msg.sender]]==1 && pid==addresstoId[msg.sender]) ||\n        return (tid[_tid].patient_id,tid[_tid].doctor_id,tid[_tid].diagnosis,tid[_tid].test_conducted,tid[_tid].bill,tid[_tid].date,tid[_tid].medicine);\n    }\n        \n    function addInsuranceKeep(uint p_id, string memory  _medication) public {\n        uint val = addresstoId[msg.sender];\n        require(entitie[val]==2); \n        uint _t_id = p_info[p_id].treatmentId[p_info[p_id].treatmentId.length-1];\n        tid[_t_id].InsuranceKeep.push(_medication);   \n    }\n    \n    //---------------------------------------------------------------------------------------------------------------------------------\n    //Doctor starts here\n    \n     struct doctor{\n        uint doc_id;\n        string name;\n        string practice_type;\n        string area_of_expertize;\n        uint phone_no;\n        string Address;\n    }\n    \n    mapping(uint=>doctor) did;\n    mapping(uint => uint) Otp;\n    \n    function addDoctor(uint doc_id,string memory name,string memory practice_type,string memory area_of_expertize,uint phone_no,string memory Address) public {\n        require(entitie[doc_id]==0 || addresstoId[msg.sender]==0); \n        did[doc_id] = doctor(doc_id,name,practice_type,area_of_expertize,phone_no,Address);\n        entitie[doc_id]=2;\n        addresstoId[msg.sender] = doc_id;\n        IdtoAdress[doc_id] = msg.sender;\n    }\n \n    function getDoctorDetails(uint _d_id) public view returns (uint doc_id,string memory name,string memory practice_type,string memory area_of_expertize,uint phone_no,string memory Address){\n        uint val = addresstoId[msg.sender];\n        require(entitie[val]==2 || entitie[val]==1 ); \n        return( did[_d_id].doc_id,did[_d_id].name,did[_d_id].practice_type,did[_d_id].area_of_expertize,did[_d_id].phone_no,did[_d_id].Address);\n    }\n\n\n    //mapping (uint => uint ) Otp;\n\n    function requestAccessToPatient(uint _adharCardNumber) public returns(uint){\n        uint val = addresstoId[msg.sender];\n        require(entitie[val]==2);\n        uint otp = uint(keccak256(abi.encode(now*_adharCardNumber)));\n        Otp[_adharCardNumber] = otp;\n    }\n       \n    function getDetailsOfAllTID(uint _adharCardNumber, uint OTP) public returns(uint [] memory){\n        uint val = addresstoId[msg.sender];\n        require(entitie[val]==2 && Otp[_adharCardNumber]==OTP);\n        return(p_info[_adharCardNumber].treatmentId);    \n    }\n\n    \n    //---------------------------------------------------------------------------------------------------------------------------------\n    //Medical store\n    \n    struct chemist {\n        uint chemist_id;\n        string Address;\n        string name;\n        uint phoneNo;\n        string[] medicines;\n    }\n    \n    mapping(uint=>chemist) cid;\n \n    function addChemist(uint chem_id, string memory Address, string memory name,uint phone_no) public {\n        require(entitie[chem_id]==0 || addresstoId[msg.sender]==0); \n        cid[chem_id].chemist_id = chem_id;\n        cid[chem_id].Address = Address;\n        cid[chem_id].name = name;\n        cid[chem_id].phoneNo = phone_no;\n        entitie[chem_id]=4;\n        addresstoId[msg.sender] = chem_id;\n        IdtoAdress[chem_id] = msg.sender;\n    }\n    \n    function getchemistinfo(uint chem_id) public returns(string memory Address, string memory name,uint phone_no){\n        require(entitie[chem_id]==4 || entitie[chem_id]==1); \n        return( cid[chem_id].Address,cid[chem_id].name,cid[chem_id].phoneNo);\n    }\n    \n    function giveMedicines(uint p_id) public view returns(string memory){\n        uint val = addresstoId[msg.sender];\n        string memory medicatines = tid[p_info[p_id].treatmentId[p_info[p_id].treatmentId.length-1]].medicine;\n        return(medicatines);\n    }\n\n    function getPTDetails(uint pid,uint _tid) public view returns (uint p_id,uint d_id,string memory date,string memory medicine) {\n        //uint val = addresstoId[msg.sender];\n        require( p_info[pid].permission==addresstoId[msg.sender] || entitie[addresstoId[msg.sender]]==1);\n        //(entitie[addresstoId[msg.sender]]==1 && pid==addresstoId[msg.sender]) ||\n        return (tid[_tid].patient_id,tid[_tid].doctor_id,tid[_tid].date,tid[_tid].medicine);\n    }\n\n    function uploadBill(uint pid,uint _tid,uint amt) public  {\n        //uint val = addresstoId[msg.sender];\n        require( p_info[pid].permission==addresstoId[msg.sender] );\n        //(entitie[addresstoId[msg.sender]]==1 && pid==addresstoId[msg.sender]) ||\n        tid[_tid].mbill = amt ;\n    }\n\n    \n    \n//--------------------------------------------------------------------------------------------------------------------------\n//Identify\n \n    function Identify() public returns (uint val) {\n        uint No = addresstoId[msg.sender];\n        if(entitie[No]==0){\n            return(0);\n        }\n        else \n            return(entitie[No]);\n    }\n \n}\n",
  "sourcePath": "C:/Users/kotgi/Desktop/Health-Chain/contracts/All_In_One.sol",
  "compiler": {
    "name": "solc",
    "version": "0.5.16+commit.9c3226ce.Emscripten.clang"
  },
  "schemaVersion": "3.3.4",
  "updatedAt": "2021-11-01T08:26:27.632Z",
  "networkType": "ethereum",
  "devdoc": {
    "methods": {}
  },
  "userdoc": {
    "methods": {}
  }
}